:1000000014C1000040C100003EC100003CC100001E
:100010003AC1000038C1000036C1000034C1000000
:1000200032C1000030C100002EC100002CC1000010
:100030002AC1000028C1000026C1000024C1000020
:1000400022C1000020C100001EC100001CC1000030
:100050001AC1000018C1000016C1000074C10000E0
:1000600012C10000ACC40000E0C400000CC10000DC
:100070000AC1000008C1000006C1000004C1000060
:1000800002C1000000C10000FEC00000FCC0000072
:10009000FAC00000F8C00000F6C00000F4C0000084
:1000A000F2C00000F0C00000EEC00000ECC0000094
:1000B000EAC00000E8C00000E6C00000E4C00000A4
:1000C000E2C00000E0C00000DEC00000DCC00000B4
:1000D000DAC00000D8C00000D6C00000D4C00000C4
:1000E000D2C00000D402D702C602CA02D0020E0358
:1000F000DB02DF02E502E902ED02F302F702FB0296
:100100000E0301030503090300000A0B02090C0D8D
:100110000E080703040100000000000000000000BA
:1001200000000000000000000000000000000000CF
:10013000000000001211100000000000000000008C
:1001400000000000000000000000000000000102AC
:1001500010202008081020401020408002010201D9
:100160000804020101020408102040808040201091
:1001700008040201800402018040201008040201EA
:100180000804020101020408102040800102040852
:10019000102040800505050507050808080802022B
:1001A00002020A0A08080404040401010101010111
:1001B00001010303030303030303040707070C0CF4
:1001C0000C0C0C0C0C0C02020202060606060606BB
:1001D00006060B0B0B0B0B0B0B0B00002000230078
:1001E000260029002C002F0032000001000003012E
:1001F0000601090100002200250028002B002E0026
:100200003100340002010000050108010B0100006B
:100210002100240027002A002D00300033000101B6
:100220000000040107010A01470511241FBECFEF9A
:10023000D1E2DEBFCDBF00E00CBF12E0A0E0B2E033
:10024000E4E6FDE000E00BBF02C007900D92A8328B
:10025000B107D9F722E0A8E2B2E001C01D92A03DAB
:10026000B207E1F712E0CAE2D2E000E005C022974F
:100270000109FE010BBF70D5C832D10780E0080725
:10028000B1F737D56DC5BCCE26E040E855E260E059
:1002900070E083E392E033D360E08DE0C0D160E0B2
:1002A0008CE0BDD160E086E3BAD160E087E3B7D1EE
:1002B00060E088E3B4C18DE0EBD1019709F042C062
:1002C0008DE0E6D10197E1F3809128029091290217
:1002D000892B79F561E072E083E392E059D486E3FB
:1002E00026D14AE050E0BC0183E392E0FAD463E017
:1002F00072E083E392E04CD487E319D14AE050E006
:10030000BC0183E392E0EDD465E072E083E392E028
:100310003FD488E30CD14AE050E0BC0183E392E093
:10032000E0D483E392E03CD462E370E080E090E0CC
:1003300077D08CE0ADD18130910521F490932902E2
:100340008093280208951F920F920FB60F921124E6
:100350002F933F938F939F93AF93BF9380912B02E3
:1003600090912C02A0912D02B0912E0230912A0280
:1003700023E0230F2D3720F40196A11DB11D05C0E8
:1003800026E8230F0296A11DB11D20932A02809317
:100390002B0290932C02A0932D02B0932E028091F9
:1003A0002F0290913002A0913102B0913202019659
:1003B000A11DB11D80932F0290933002A0933102B2
:1003C000B0933202BF91AF919F918F913F912F9146
:1003D0000F900FBE0F901F9018953FB7F894809123
:1003E0002F0290913002A0913102B091320226B5D5
:1003F000A89B05C02F3F19F00196A11DB11D3FBF5D
:100400006627782F892F9A2F620F711D811D911DEC
:1004100042E0660F771F881F991F4A95D1F708950C
:10042000CF92DF92EF92FF92CF93DF936B017C012B
:10043000D4DFEB01C114D104E104F10479F063D4F9
:10044000CCDF6C1B7D0B683E7340A0F381E0C81AC3
:10045000D108E108F108C851DC4FECCFDF91CF9112
:10046000FF90EF90DF90CF900895789484B58260EC
:1004700084BD84B5816084BD85B5826085BD85B548
:10048000816085BDEEE6F0E0808181608083E1E8F7
:10049000F0E010828081826080838081816080832F
:1004A000E0E8F0E0808181608083E1EBF0E0808132
:1004B00084608083E0EBF0E0808181608083E1E90B
:1004C000F0E0808182608083808181608083E0E9C8
:1004D000F0E0808181608083E1EAF0E080818260E9
:1004E0008083808181608083E0EAF0E080818160A8
:1004F0008083E1E2F1E0808182608083808181609D
:100500008083E0E2F1E0808181608083EAE7F0E0CF
:10051000808184608083808182608083808181602B
:1005200080838081806880831092C1000895863323
:1005300008F0865320917B00982F9870277F922B8C
:1005400090937B0087702091000290E4299F900196
:100550001124822B80937C0080917A0080648093A8
:100560007A0080917A0086FDFCCF809178002091FE
:10057000790090E0922B089590E0FC013197E231F0
:10058000F10508F04BC0EE58FF4FE0C380918000AA
:100590008F7703C0809180008F7D809380000895C5
:1005A00080918000877FF9CF84B58F7702C084B5B2
:1005B0008F7D84BD08958091B0008F7703C08091B6
:1005C000B0008F7D8093B0000895809190008F7768
:1005D00007C0809190008F7D03C080919000877F3D
:1005E0008093900008958091A0008F7707C080913C
:1005F000A0008F7D03C08091A000877F8093A00022
:100600000895809120018F7707C0809120018F7D10
:1006100003C080912001877F809320010895CF93AC
:10062000DF9390E0FC01E25BFE4F2491FC01EC566D
:10063000FE4F8491882349F190E0880F991FFC01B7
:10064000E25FFD4FA591B4918C509E4FFC01C59186
:10065000D4919FB7611108C0F8948C9120958223A2
:100660008C93888182230AC0623051F4F8948C9173
:10067000322F309583238C938881822B888304C00A
:10068000F8948C91822B8C939FBFDF91CF9108952A
:10069000CF93DF93282F30E0F901E85FFE4F84917C
:1006A000F901E25BFE4FD491F901EC56FE4FC49183
:1006B000CC2389F0811160DFEC2FF0E0EE0FFF1FFB
:1006C000E652FE4FA591B4912C912D2381E090E04C
:1006D00021F480E002C080E090E0DF91CF910895A6
:1006E000FC01818D228D90E0805C9F4F821B9109DF
:1006F0008F7399270895FC01918D828D981731F0A1
:10070000828DE80FF11D858D90E008958FEF9FEFAA
:100710000895FC01918D828D981761F0828DDF0123
:10072000A80FB11D5D968C91928D9F5F9F73928FE4
:1007300090E008958FEF9FEF08958EE395E0892B69
:1007400039F080E090E0892B19F098D1811125C013
:1007500080E090E0892B41F080E090E0892B21F04F
:100760000E94000081111CC080E090E0892B41F0C4
:1007700080E090E0892B21F00E940000811113C0DD
:1007800080E090E0892BA1F080E090E0892B81F05F
:100790000E94000081110AC008950E940000D8CF75
:1007A0000E940000E1CF0E940000EACF0C940000FC
:1007B0000895FC01848DDF01A80FB11DA35ABF4F1E
:1007C0002C91848D90E001968F739927848FA68950
:1007D000B7892C93A089B1898C9180648C93938D77
:1007E000848D981306C00288F389E02D80818F7D67
:1007F00080830895CF93DF93EC01888D8823C1F027
:10080000EA89FB89808185FD05C0A889B9898C9119
:1008100086FD0EC00FB607FCF5CF808185FFF2CFB5
:10082000A889B9898C9185FFEDCFCE01C2DFE8CFD1
:10083000DF91CF910895CF92DF92FF920F931F9394
:10084000CF93DF931F92CDB7DEB76C0181E0D60165
:1008500058968C9358975B969C915B975C968C917D
:100860005C97981307C05096ED91FC915197808149
:1008700085FD2DC0F601038D10E00F5F1F4F0F7334
:100880001127F02EF601848DF81210C00FB607FC68
:10089000F9CFD6015096ED91FC915197808185FF5B
:1008A000F1CFC601698385DF6981ECCF838DE80FC5
:1008B000F11DE35AFF4F6083D6015B960C935B9763
:1008C0005296ED91FC915397808180620CC0D601C5
:1008D0005696ED91FC91579760835096ED91FC915F
:1008E000519780818064808381E090E00F90DF9158
:1008F000CF911F910F91FF90DF90CF900895BF92FD
:10090000CF92DF92EF92FF92CF93DF93EC016A01D7
:100910007B01B22EE889F98982E08083411581EE5E
:1009200058076105710599F060E079E08DE390E08A
:10093000A7019601E9D12150310941095109569584
:10094000479537952795211580E1380790F0E8897C
:10095000F989108260E874E88EE190E0A7019601C1
:10096000D3D1215031094109510956954795379501
:100970002795EC85FD853083EE85FF852083188ED5
:10098000EC89FD89B082EA89FB898081806180835E
:10099000EA89FB89808188608083EA89FB8980817C
:1009A00080688083EA89FB8980818F7D8083DF91E5
:1009B000CF91FF90EF90DF90CF90BF9008951F925E
:1009C0000F920FB60F9211240BB60F922F938F93A5
:1009D0009F93EF93FF93E0914302F0914402808153
:1009E000E0914902F0914A0282FD12C0908180910B
:1009F0004C028F5F8F7320914D02821751F0E0916E
:100A00004C02F0E0ED5CFD4F958F80934C0201C0ED
:100A10008081FF91EF919F918F912F910F900BBE4D
:100A20000F900FBE0F901F9018951F920F920FB648
:100A30000F9211240BB60F922F933F934F935F9316
:100A40006F937F938F939F93AF93BF93EF93FF9396
:100A500083E392E0AEDEFF91EF91BF91AF919F9162
:100A60008F917F916F915F914F913F912F910F9057
:100A70000BBE0F900FBE0F901F90189583E392E06E
:100A80002FDE21E0892B09F420E0822F08951092B7
:100A900036021092350288EE93E0A0E0B0E0809339
:100AA000370290933802A0933902B0933A028BE058
:100AB00092E0909334028093330285EC90E090931F
:100AC000400280933F0284EC90E090934202809336
:100AD000410280EC90E0909344028093430281ECC9
:100AE00090E0909346028093450282EC90E09093D0
:100AF00048028093470286EC90E090934A028093EC
:100B0000490210924C0210924D0210924E02109225
:100B10004F020895CF92DF92EF92FF920F931F93AF
:100B2000CF93DF937C016A01EB0100E010E00C152C
:100B30001D0571F06991D701ED91FC910190F08153
:100B4000E02DC7011995892B19F00F5F1F4FEFCFCB
:100B5000C801DF91CF911F910F91FF90EF90DF902F
:100B6000CF9008956115710581F0DB010D90002093
:100B7000E9F7AD0141505109461B570BDC01ED91DE
:100B8000FC910280F381E02D199480E090E00895BB
:100B9000E9CFDC01ED91FC910190F081E02D1994F9
:100BA00067E172E0DFCF8F929F92AF92BF92CF92B8
:100BB000DF92EF92FF920F931F93CF93DF93CDB706
:100BC000DEB7A1970FB6F894DEBF0FBECDBF7C0194
:100BD000C42EE52FCB01D22E19A221E02D1510F045
:100BE0002AE0D22E8E010F5D1F4F8D2C912CA12C4F
:100BF000B12C6C2D7E2FA501940186D08C2DD29E18
:100C000080191124015011098A3014F4805D01C04B
:100C1000895CF8018083211531054105510521F0DA
:100C2000C22EE32FCA01E5CFB801C7019BDFA19611
:100C30000FB6F894DEBF0FBECDBFDF91CF911F91ED
:100C40000F91FF90EF90DF90CF90BF90AF909F906B
:100C50008F900895CF92DF92EF92FF920F931F93A0
:100C6000CF93DF93EC016A017B012115310579F403
:100C7000E881F9810190F081E02D642FDF91CF911F
:100C80001F910F91FF90EF90DF90CF9019942A3031
:100C90003105D9F477FF18C06DE27BDF8C01442762
:100CA0005527BA014C195D096E097F092AE0CE016A
:100CB0007ADF800F911FDF91CF911F910F91FF90ED
:100CC000EF90DF90CF9008952AE0B701A601CE0102
:100CD000DF91CF911F910F91FF90EF90DF90CF9018
:100CE00062CF9A01AB01662757FD6095762FB2CF90
:100CF0000895BBDBFDDFC8DACDE9D3E0DCDA20976D
:100D0000E9F31BDDFBCF0895A1E21A2EAA1BBB1B42
:100D1000FD010DC0AA1FBB1FEE1FFF1FA217B307C7
:100D2000E407F50720F0A21BB30BE40BF50B661FDD
:100D3000771F881F991F1A9469F7609570958095A1
:100D400090959B01AC01BD01CF010895EE0FFF1FEF
:100D50000590F491E02D19940790F691E02D1994E7
:040D6000F894FFCF35
:100D640001580059005A00000000001B048A057055
:100D74000389037B03FA030D0A006E616E00696E3A
:080D840066006F7666002E0088
:00000001FF
