:1000000014C1000040C100003EC100003CC100001E
:100010003AC1000038C1000036C1000034C1000000
:1000200032C1000030C100002EC100002CC1000010
:100030002AC1000028C1000026C1000024C1000020
:1000400022C1000020C100001EC100001CC1000030
:100050001AC1000018C1000016C10000D4C1000080
:1000600012C100000CC5000040C500000CC100001A
:100070000AC1000008C1000006C1000004C1000060
:1000800002C1000000C10000FEC00000FCC0000072
:10009000FAC00000F8C00000F6C00000F4C0000084
:1000A000F2C00000F0C00000EEC00000ECC0000094
:1000B000EAC00000E8C00000E6C00000E4C00000A4
:1000C000E2C00000E0C00000DEC00000DCC00000B4
:1000D000DAC00000D8C00000D6C00000D4C00000C4
:1000E000D2C000003403370326032A0330036E0313
:1000F0003B033F03450349034D03530357035B038E
:100100006E0361036503690300000A0B02090C0D0D
:100110000E080703040100000000000000000000BA
:1001200000000000000000000000000000000000CF
:10013000000000001211100000000000000000008C
:1001400000000000000000000000000000000102AC
:1001500010202008081020401020408002010201D9
:100160000804020101020408102040808040201091
:1001700008040201800402018040201008040201EA
:100180000804020101020408102040800102040852
:10019000102040800505050507050808080802022B
:1001A00002020A0A08080404040401010101010111
:1001B00001010303030303030303040707070C0CF4
:1001C0000C0C0C0C0C0C02020202060606060606BB
:1001D00006060B0B0B0B0B0B0B0B00002000230078
:1001E000260029002C002F0032000001000003012E
:1001F0000601090100002200250028002B002E0026
:100200003100340002010000050108010B0100006B
:100210002100240027002A002D00300033000101B6
:100220000000040107010A01A70511241FBECFEF3A
:10023000D1E2DEBFCDBF00E00CBF12E0A0E0B2E033
:10024000E4E2FEE000E00BBF02C007900D92A8328E
:10025000B107D9F722E0A8E2B2E001C01D92A43EA6
:10026000B207E1F712E0CAE2D2E000E005C022974F
:100270000109FE010BBFD0D5C832D10780E00807C5
:10028000B1F797D5CDC5BCCE26E040E855E260E099
:1002900070E087E492E093D360E08DE020D260E0EC
:1002A0008CE01DD260E086E31AD260E087E317D2CB
:1002B00060E088E314C280913A0290913B02892B5E
:1002C000C1F486E394D1909339028093380287E396
:1002D0008ED1909337028093360288E388D1909331
:1002E00035028093340281E090E090933B0280934A
:1002F0003A028DE02DD2019709F47DC010923D02A3
:1003000010923C02089586E372D190933302809359
:10031000320287E36CD1909331028093300288E3FC
:1003200066D190932F0280932E0220913202309159
:1003300033024091380250913902241B350B30931F
:100340002D0220932C0220913002309131024091F5
:10035000360250913702241B350B30932B02209329
:100360002A022091340230913502821B930B909324
:1003700029028093280261E072E087E492E068D469
:1003800060912C0270912D024AE050E087E492E0E7
:1003900008D563E072E087E492E05AD460912A02C3
:1003A00070912B024AE050E087E492E0FAD465E0D5
:1003B00072E087E492E04CD46091280270912902A7
:1003C0004AE050E087E492E0ECD487E492E048D43D
:1003D00062E370E080E090E083D068EB7BE080E057
:1003E00090E07ED08CE0B4D18130910521F49093DF
:1003F0003D0280933C0280913C0290913D02892B0A
:1004000009F481CF7BCF1F920F920FB60F92112468
:100410002F933F938F939F93AF93BF9380913F020E
:1004200090914002A0914102B091420230913E026F
:1004300023E0230F2D3720F40196A11DB11D05C027
:1004400026E8230F0296A11DB11D20933E02809342
:100450003F0290934002A0934102B09342028091E8
:10046000430290914402A0914502B0914602019648
:10047000A11DB11D8093430290934402A0934502B5
:10048000B0934602BF91AF919F918F913F912F9171
:100490000F900FBE0F901F9018953FB7F894809162
:1004A000430290914402A0914502B091460226B5C4
:1004B000A89B05C02F3F19F00196A11DB11D3FBF9C
:1004C0006627782F892F9A2F620F711D811D911D2C
:1004D00042E0660F771F881F991F4A95D1F708954C
:1004E000CF92DF92EF92FF92CF93DF936B017C016B
:1004F000D4DFEB01C114D104E104F10479F063D439
:10050000CCDF6C1B7D0B683E7340A0F381E0C81A02
:10051000D108E108F108C851DC4FECCFDF91CF9151
:10052000FF90EF90DF90CF900895789484B582602B
:1005300084BD84B5816084BD85B5826085BD85B587
:10054000816085BDEEE6F0E0808181608083E1E836
:10055000F0E010828081826080838081816080836E
:10056000E0E8F0E0808181608083E1EBF0E0808171
:1005700084608083E0EBF0E0808181608083E1E94A
:10058000F0E0808182608083808181608083E0E907
:10059000F0E0808181608083E1EAF0E08081826028
:1005A0008083808181608083E0EAF0E080818160E7
:1005B0008083E1E2F1E080818260808380818160DC
:1005C0008083E0E2F1E0808181608083EAE7F0E00F
:1005D000808184608083808182608083808181606B
:1005E00080838081806880831092C1000895863363
:1005F00008F0865320917B00982F9870277F922BCC
:1006000090937B0087702091000290E4299F9001D5
:100610001124822B80937C0080917A0080648093E7
:100620007A0080917A0086FDFCCF8091780020913D
:10063000790090E0922B089590E0FC013197E2312F
:10064000F10508F04BC0EE58FF4FE0C380918000E9
:100650008F7703C0809180008F7D80938000089504
:1006600080918000877FF9CF84B58F7702C084B5F1
:100670008F7D84BD08958091B0008F7703C08091F5
:10068000B0008F7D8093B0000895809190008F77A7
:1006900007C0809190008F7D03C080919000877F7C
:1006A0008093900008958091A0008F7707C080917B
:1006B000A0008F7D03C08091A000877F8093A00061
:1006C0000895809120018F7707C0809120018F7D50
:1006D00003C080912001877F809320010895CF93EC
:1006E000DF9390E0FC01E25BFE4F2491FC01EC56AD
:1006F000FE4F8491882349F190E0880F991FFC01F7
:10070000E25FFD4FA591B4918C509E4FFC01C591C5
:10071000D4919FB7611108C0F8948C9120958223E1
:100720008C93888182230AC0623051F4F8948C91B2
:10073000322F309583238C938881822B888304C049
:10074000F8948C91822B8C939FBFDF91CF91089569
:10075000CF93DF93282F30E0F901E85FFE4F8491BB
:10076000F901E25BFE4FD491F901EC56FE4FC491C2
:10077000CC2389F0811160DFEC2FF0E0EE0FFF1F3A
:10078000E652FE4FA591B4912C912D2381E090E08B
:1007900021F480E002C080E090E0DF91CF910895E5
:1007A000FC01818D228D90E0805C9F4F821B91091E
:1007B0008F7399270895FC01918D828D981731F0E0
:1007C000828DE80FF11D858D90E008958FEF9FEFEA
:1007D0000895FC01918D828D981761F0828DDF0163
:1007E000A80FB11D5D968C91928D9F5F9F73928F24
:1007F00090E008958FEF9FEF08958EE995E0892BA3
:1008000039F080E090E0892B19F098D1811125C052
:1008100080E090E0892B41F080E090E0892B21F08E
:100820000E94000081111CC080E090E0892B41F003
:1008300080E090E0892B21F00E940000811113C01C
:1008400080E090E0892BA1F080E090E0892B81F09E
:100850000E94000081110AC008950E940000D8CFB4
:100860000E940000E1CF0E940000EACF0C9400003B
:100870000895FC01848DDF01A80FB11DA35ABF4F5D
:100880002C91848D90E001968F739927848FA6898F
:10089000B7892C93A089B1898C9180648C93938DB6
:1008A000848D981306C00288F389E02D80818F7DA6
:1008B00080830895CF93DF93EC01888D8823C1F066
:1008C000EA89FB89808185FD05C0A889B9898C9159
:1008D00086FD0EC00FB607FCF5CF808185FFF2CFF5
:1008E000A889B9898C9185FFEDCFCE01C2DFE8CF11
:1008F000DF91CF910895CF92DF92FF920F931F93D4
:10090000CF93DF931F92CDB7DEB76C0181E0D601A4
:1009100058968C9358975B969C915B975C968C91BC
:100920005C97981307C05096ED91FC915197808188
:1009300085FD2DC0F601038D10E00F5F1F4F0F7373
:100940001127F02EF601848DF81210C00FB607FCA7
:10095000F9CFD6015096ED91FC915197808185FF9A
:10096000F1CFC601698385DF6981ECCF838DE80F04
:10097000F11DE35AFF4F6083D6015B960C935B97A2
:100980005296ED91FC915397808180620CC0D60104
:100990005696ED91FC91579760835096ED91FC919E
:1009A000519780818064808381E090E00F90DF9197
:1009B000CF911F910F91FF90DF90CF900895BF923C
:1009C000CF92DF92EF92FF92CF93DF93EC016A0117
:1009D0007B01B22EE889F98982E08083411581EE9E
:1009E00058076105710599F060E079E08DE390E0CA
:1009F000A7019601E9D121503109410951095695C4
:100A0000479537952795211580E1380790F0E889BB
:100A1000F989108260E874E88EE190E0A701960100
:100A2000D3D1215031094109510956954795379540
:100A30002795EC85FD853083EE85FF852083188E14
:100A4000EC89FD89B082EA89FB898081806180839D
:100A5000EA89FB89808188608083EA89FB898081BB
:100A600080688083EA89FB8980818F7D8083DF9124
:100A7000CF91FF90EF90DF90CF90BF9008951F929D
:100A80000F920FB60F9211240BB60F922F938F93E4
:100A90009F93EF93FF93E0915702F091580280816A
:100AA000E0915D02F0915E0282FD12C09081809122
:100AB00060028F5F8F7320916102821751F0E09185
:100AC0006002F0E0E95BFD4F958F8093600201C00A
:100AD0008081FF91EF919F918F912F910F900BBE8D
:100AE0000F900FBE0F901F9018951F920F920FB688
:100AF0000F9211240BB60F922F933F934F935F9356
:100B00006F937F938F939F93AF93BF93EF93FF93D5
:100B100087E492E0AEDEFF91EF91BF91AF919F919C
:100B20008F917F916F915F914F913F912F910F9096
:100B30000BBE0F900FBE0F901F90189587E492E0A8
:100B40002FDE21E0892B09F420E0822F08951092F6
:100B50004A021092490288EE93E0A0E0B0E0809350
:100B60004B0290934C02A0934D02B0934E028BE047
:100B700092E0909348028093470285EC90E0909336
:100B800054028093530284EC90E090935602809339
:100B9000550280EC90E0909358028093570281ECCC
:100BA00090E090935A028093590282EC90E09093E7
:100BB0005C0280935B0286EC90E090935E028093EF
:100BC0005D02109260021092610210926202109215
:100BD00063020895CF92DF92EF92FF920F931F93DB
:100BE000CF93DF937C016A01EB0100E010E00C156C
:100BF0001D0571F06991D701ED91FC910190F08193
:100C0000E02DC7011995892B19F00F5F1F4FEFCF0A
:100C1000C801DF91CF911F910F91FF90EF90DF906E
:100C2000CF9008956115710581F0DB010D900020D2
:100C3000E9F7AD0141505109461B570BDC01ED911D
:100C4000FC910280F381E02D199480E090E00895FA
:100C5000E9CFDC01ED91FC910190F081E02D199438
:100C600067E172E0DFCF8F929F92AF92BF92CF92F7
:100C7000DF92EF92FF920F931F93CF93DF93CDB745
:100C8000DEB7A1970FB6F894DEBF0FBECDBF7C01D3
:100C9000C42EE52FCB01D22E19A221E02D1510F084
:100CA0002AE0D22E8E010F5D1F4F8D2C912CA12C8E
:100CB000B12C6C2D7E2FA501940186D08C2DD29E57
:100CC00080191124015011098A3014F4805D01C08B
:100CD000895CF8018083211531054105510521F01A
:100CE000C22EE32FCA01E5CFB801C7019BDFA19651
:100CF0000FB6F894DEBF0FBECDBFDF91CF911F912D
:100D00000F91FF90EF90DF90CF90BF90AF909F90AA
:100D10008F900895CF92DF92EF92FF920F931F93DF
:100D2000CF93DF93EC016A017B012115310579F442
:100D3000E881F9810190F081E02D642FDF91CF915E
:100D40001F910F91FF90EF90DF90CF9019942A3070
:100D50003105D9F477FF18C06DE27BDF8C014427A1
:100D60005527BA014C195D096E097F092AE0CE01A9
:100D70007ADF800F911FDF91CF911F910F91FF902C
:100D8000EF90DF90CF9008952AE0B701A601CE0141
:100D9000DF91CF911F910F91FF90EF90DF90CF9057
:100DA00062CF9A01AB01662757FD6095762FB2CFCF
:100DB0000895BBDBFDDF68DACDEFD3E07CDA209766
:100DC000E9F31BDDFBCF0895A1E21A2EAA1BBB1B82
:100DD000FD010DC0AA1FBB1FEE1FFF1FA217B30707
:100DE000E407F50720F0A21BB30BE40BF50B661F1D
:100DF000771F881F991F1A9469F7609570958095E1
:100E000090959B01AC01BD01CF010895EE0FFF1F2E
:100E10000590F491E02D19940790F691E02D199426
:040E2000F894FFCF74
:100E240001580059005A00000000007B04EA05D074
:100E340003E903DB035A040D0A006E616E00696E58
:080E440066006F7666002E00C7
:00000001FF
